S01F000073696C6162732D62676D2D696164632D32303231303832342E73333776
S214006000C00A002075970000719700007197000085
S21400601009D3000071970000719700007197000087
S214006020719700007197000071970000719700004B
S2140060307197000004730300058400007197000048
S214006040719700007197000071970000719700002B
S214006050719700007197000071970000719700001B
S214006060719700007197000071970000719700000B
S21400607069E30000719700007197000059860000E0
S2140060804986000071970000719700007197000024
S21400609071970000719700007197000071970000DB
S2140060A071970000259B0000FD9A00007197000084
S2140060B071970000D125030071970000212F03007F
S2140060C0D92E0300D52E0300992703001D2F0300A9
S2140060D0DD2E0300F52E0300E12E0300792F0300CA
S2140060E0910A0300590C0300612F0300719700000A
S2140060F0A5C9000071970000719700007197000015
S214006100D98E00007197000071970000719700000B
S214006110719700007197000071970000719700005A
S214006120719700007197000071970000719700004A
S214006130719700007197000071970000719700003A
S21400614010B5054C237833B9044B13B1044800E06E
S21400615000BF0123237010BDAC100020000000001B
S21400616074CC030008B5034B1BB10349034800E099
S21400617000BF08BD00000000B010002074CC030073
S214006180A3F5803A704700BF174B002B08BF134B90
S2140061909D46FFF7F5FF00218B460F461348144A2D
S2140061A0121A2DF0A0FE0E4B002B00D098470D4B78
S2140061B0002B00D098470020002104000D000D4859
S2140061C0002802D00C4800E000BF2DF021FE200081
S2140061D0290002F00BF92DF007FE00BF00000800B2
S2140061E00000000000000000C00A0020AC100020E4
S2140061F0204E00200000000000000000000000000C
S214006200F8B503F06DFA03F06CFA814C814920680A
S21400621006F01AFC03F064FA03F063FA7E4920687D
S21400622006F012FC03F0D4F803F05AFA03F059FA19
S2140062307A49206806F008FC03F052FA03F051FA97
S2140062407749206806F000FC03F04AFA03F049FAA2
S2140062507449206806F0F8FB02F010FEB7EE000A5C
S214006260714B83ED000A02F0DBFD0A2003F0D4F840
S21400627003F036FA03F035FA6C49206806F0E4FBC2
S21400628002F074FC02F044FC002407E002F0E0FB9D
S214006290674B03EBC40383ED000B0134092CF5D9DF
S2140062A003F01EFA03F01DFA594C6249206806F006
S2140062B0CBFB02F0EBFB604B83ED000B03F010FA18
S2140062C003F00FFA5D49206806F0BEFB03F0D4F831
S2140062D05B4B83ED000A03F003FA03F002FA594918
S2140062E0206806F0B1FB02F09FFF574D286003F0D0
S2140062F0F7F903F0F6F95549206806F0A5FB02F019
S214006300B1FE286802F034FE474B93ED000A02F017
S21400631087FD002200234E49C1E900234D4936A5DA
S214006320D5E90045C1E900454B49C1E900230026EF
S21400633000E00136B6F5806F2AD202F025FE55EC55
S214006340104B3B4B03EBC60383ED000B424F10EEA6
S214006350102A2B46D7E900012CF0C2FEC7E900013F
S2140063603C4BD3E90023204629462DF0E1FA10B134
S214006370384BC3E90045364BD3E90023204629466F
S2140063802DF0F4FA0028D4D0314BC3E90045D0E70D
S214006390304BD3E900232E49D1E900012CF09EFEB4
S2140063A000222E4B2DF052F804460D462C4EC6E920
S2140063B00045294F00222B4BD7E900012DF046F867
S2140063C00022264B2DF042F8C7E900010CA3D3E9C2
S2140063D00023204629462DF063F902460B46C6E9FF
S2140063E0002309A1D1E900012DF05AF92DF0F0FAA9
S2140063F01D4B1860F8BD00BF295C8FC2F528F43F1E
S2140064006666666666661A40000000000088A3405E
S214006410EC340020D0710300D8710300E47103004F
S214006420F871030008720300F810002024720300BD
S214006430C81400203C720300E81000205C720300C1
S214006440F41000207C720300F0100020907203000D
S214006450D0100020C00A0020C810002000408F4046
S214006460D81000200000503FE010002070470000C9
S214006470036823F47F4323F007033D4A934200D08A
S214006480704730B589B00DF1170106A81DF058F910
S214006490054610B3374C3849206806F0D5FA374918
S2140064A0206806F0D1FA03F01BF903F01AF9344B12
S2140064B00093BD23334A3449206806F0C5FA2B46BC
S2140064C0324A3349206806F0BFFA284603F032F90C
S2140064D03049206806F0B8FAFEE79DF81D308DF8C2
S2140064E00C309DF81C308DF80D309DF81B308DF863
S2140064F00E30FF238DF80F30FE238DF810309DF8F8
S2140065001A308DF811309DF819308DF812309DF83C
S21400651018308DF8133003AB0822002112201CF02F
S21400652017FF054608B909B030BD124C124920685D
S21400653006F08AFA1149206806F086FA03F0D0F8C9
S21400654003F0CFF80E4B0093CD230E4A0E49206879
S21400655006F07AFA2B460D4A0D49206806F074FAC2
S214006560284603F0E7F80B49206806F06DFAFEE7C8
S214006570A0000100EC34002004720300A4720300A3
S214006580F4720300AC720300B8720300C472030016
S214006590C8720300E072030010B5044600222721EB
S2140065A000791CF047FF04F10B002DF011FC51ECB4
S2140065B0100B2DF02DFA00EE100A02F031FC10BD83
S2140065C02DE9F04F2DED028B89B090F8049002F083
S2140065D0EBFBDFED327A20EE270ABCEEC08AB8EE7F
S2140065E0487A30EE470A20EE270AFCEEC07A17EE0D
S2140065F0904A03F075F803F074F8DFF8AC80234691
S21400660018EE102A2649D8F8000006F01DFA4FF0BA
S2140066102E0BCDF80CB0002504950595069507952C
S214006620DFF888A003AF18EE103A52460A21384623
S2140066302DF0EAFDC6B208AB334403F814BC701C58
S214006640234652460A2138442DF0DEFD56FA80F6DF
S214006650731C08AA13446D2203F8142CB31C08AA52
S2140066601344562203F8142C03F03AF803F039F8D2
S2140066703A460C49D8F8000006F0E6F90DF10A0390
S21400668001930097F31C2A46272148461CF096FEE5
S21400669009B0BDEC028BBDE8F08F00BF00007A4465
S2140066A04473030064730300EC340020607303003B
S2140066B02DE9F04788B090F8048002F065FC51ECB4
S2140066C0100B00222E4B2CF0C1FE06460F462DF076
S2140066D07FF905462CF040FE02460B46304639460A
S2140066E02CF0FCFC0022264B2CF0B0FE2DF070F9AE
S2140066F0064602F0F5FF02F0F4FF33462A4621492B
S2140067002148006806F0A0F94FF02E0ACDF80CA03C
S21400671000240494059406940794DFF8709003AF61
S2140067202B464A460A2138462DF06EFDC5B208AB08
S2140067302B4403F814AC681C33464A460A213844F6
S2140067402DF062FD55FA80F35A1C08A90A446D2103
S21400675002F8141C9A1C08A90A44562102F8141CB4
S2140067600DF10A020192009703332246212140468A
S2140067701CF024FE00F0F4FD08B0BDE8F08700BF72
S21400678000408F4068730300EC3400206073030001
S2140067902DE9F04F89B090F804A002F059F951ECB9
S2140067A0100B0022334B2CF051FE06460F462DF000
S2140067B00FF905462CF0D0FD02460B46304639460A
S2140067C02CF08CFC00222B4B2CF040FE2DF000F918
S2140067D0074602F085FF02F084FFDFF8A4803B4600
S2140067E02A462549D8F8000006F02EF94FF02E0B61
S2140067F0CDF80CB000240494059406940794DFF8B2
S214006800849003AE2B464A460A2130462DF0FCFC07
S214006810C5B208AB2B4403F814BC681C3B464A467A
S2140068200A2130442DF0F0FC55FA80F56B1C08AABE
S21400683013446D2203F8142CAB1C08AA13445622EA
S21400684003F8142C02F04CFF02F04BFF32460B49C3
S214006850D8F8000006F0F8F80DF10A030193009648
S214006860EB1C2246242150461CF0A8FD09B0BDE8CA
S214006870F08F00BF00408F407C73030064730300FA
S214006880EC340020607303002DE9F04F89B090F8D7
S21400689004B002F0F1FDFCEEC07A17EE906ADFED70
S2140068A02E7A60EE277A4FF47A7303FB06F300EE37
S2140068B0103AB8EE400A37EEC00AFCEEC07A17EE81
S2140068C0904A02F00DFF02F00CFFDFF89880234696
S2140068D032462249D8F8000006F0B6F84FF02E0AE5
S2140068E0CDF80CA000250495059506950795DFF8CC
S2140068F0789003AF33464A460A2138462DF084FC8A
S214006900C6B208AB334403F814AC701C23464A46A0
S2140069100A2138442DF078FC56FA80F6731C08AA33
S2140069201344432203F8142C02F0DAFE02F0D9FED8
S2140069303A460B49D8F8000006F086F80DF10A032F
S21400694001930097B31C2A46292158461CF036FDB1
S21400695009B0BDE8F08F00BF00007A4498730300CA
S21400696064730300EC340020607303002DE9F04FDD
S21400697089B090F804B002F07FFDFCEEC07A17EE06
S214006980906ADFED2E7A60EE277A4FF47A7303FB77
S21400699006F300EE103AB8EE400A37EEC00AFCEEF8
S2140069A0C07A17EE904A02F09BFE02F09AFEDFF8DD
S2140069B09880234632462249D8F8000006F044F86C
S2140069C04FF02E0ACDF80CA00025049505950695E7
S2140069D00795DFF8789003AF33464A460A213846D3
S2140069E02DF012FCC6B208AB334403F814AC701C8E
S2140069F023464A460A2138442DF006FC56FA80F60D
S214006A00731C08AA1344432203F8142C02F068FEF1
S214006A1002F067FE3A460B49D8F8000006F014F874
S214006A200DF10A0301930097B31C2A462921584604
S214006A301CF0C4FC09B0BDE8F08F00BF00007A442B
S214006A409873030064730300EC3400206073030043
S214006A502DE9F04F89B090F804A0334BD3E90067D6
S214006A60304639462CF0B4FF05462CF075FC02463D
S214006A700B46304639462CF031FB00222B4B2CF0CF
S214006A80E5FC2CF0A5FF074602F02AFE02F029FEE0
S214006A90DFF8A4803B462A462549D8F8000005F0D2
S214006AA0D3FF4FF02E0BCDF80CB0002404940594C1
S214006AB006940794DFF8849003AE2B464A460A21D4
S214006AC030462DF0A1FBC5B208AB2B4403F814BC2E
S214006AD0681C3B464A460A2130442DF095FB55FA81
S214006AE080F56B1C08AA13446D2203F8142CAB1C0B
S214006AF008AA1344562203F8142C02F0F1FD02F003
S214006B00F0FD32460B49D8F8000005F09DFF0DF168
S214006B100A0301930096EB1C2246242150461CF0E3
S214006B204DFC09B0BDE8F08FC014002000408F4037
S214006B30B073030064730300EC340020607303003A
S214006B402DE9F04F89B090F804902D4BD3E900451D
S214006B50204629462CF03CFF06462CF0FDFB02465C
S214006B600B46204629462CF0B9FA0022254B2CF07D
S214006B706DFC2CF02DFF804602F0B2FD02F0B1FD58
S214006B80DFF890A0434632461F49DAF8000005F0C9
S214006B905BFF4FF02E0BCDF80CB000240494059448
S214006BA006940794194D03AF33462A460A21384601
S214006BB02DF02AFBC6B208AB334403F814BC701C95
S214006BC043462A460A2138442DF01EFB054602F0AD
S214006BD087FD02F086FD3A460D49DAF8000005F01A
S214006BE033FF56FA85F30DF10A020192009701333E
S214006BF02246242148461CF0E1FB09B0BDE8F08F90
S214006C00B814002000408F40D47303006073030064
S214006C1064730300EC34002010B582B0134B01936C
S214006C208DF8061001AB04221D211CF05BFC88B118
S214006C30022002F035FDB0B10D4C0E49206805F07B
S214006C4003FF02F04DFD02F04CFD0B49206805F0F5
S214006C50FBFE08E002F044FD02F043FD0749044B4A
S214006C60186805F0F1FE02B010BD00BF0600000275
S214006C70EC340020FC73030004740300307403003B
S214006C8010B582B0124B019301AB04221D211CF0FB
S214006C9029FC88B1022002F003FDB0B10D4C0E496C
S214006CA0206805F0D1FE02F01BFD02F01AFD0B492C
S214006CB0206805F0C9FE08E002F012FD02F011FDA2
S214006CC00749044B186805F0BFFE02B010BD00BFB0
S214006CD006000103EC340020FC7303004474030038
S214006CE07474030010B582B0124B019301AB0422FA
S214006CF01D211CF0F7FB88B1022002F0D1FCB0B1D8
S214006D000D4C0E49206805F09FFE02F0E9FC02F0EB
S214006D10E8FC0B49206805F097FE08E002F0E0FC6E
S214006D2002F0DFFC0749044B186805F08DFE02B040
S214006D3010BD00BF06000104EC340020FC73030005
S214006D40887403009C7B030010B582B0124B01933D
S214006D5001AB04221D211CF0C5FB88B1022002F005
S214006D609FFCB0B10D4C0E49206805F06DFE02F098
S214006D70B7FC02F0B6FC0B49206805F065FE08E09B
S214006D8002F0AEFC02F0ADFC0749044B186805F0B3
S214006D905BFE02B010BD00BF06000105EC3400200B
S214006DA0FC730300BC740300EC74030010B582B0DF
S214006DB0124B019301AB04221D211CF093FB88B1FA
S214006DC0022002F06DFCB0B10D4C0E49206805F0B3
S214006DD03BFE02F085FC02F084FC0B49206805F0BF
S214006DE033FE08E002F07CFC02F07BFC0749044B13
S214006DF0186805F029FE02B010BD00BF06000105A8
S214006E00EC340020FC730300BC740300047503001C
S214006E1010B582B0124B019301AB04221D211CF069
S214006E2061FB88B1022002F03BFCB0B10D4C0E496C
S214006E30206805F009FE02F053FC02F052FC0B49F4
S214006E40206805F001FE08E002F04AFC02F049FC6A
S214006E500749044B186805F0F7FD02B010BD00BFE7
S214006E6006000109EC340020FC730300BC74030028
S214006E701C75030000B585B01C4A13780133DBB2DD
S214006E8013700022009201920292CDF80B20072286
S214006E908DF800208DF80130E5218DF803108DF86F
S214006EA004208DF8052005228DF806200C218DF88B
S214006EB007101E218DF808108DF8092032338DF842
S214006EC00C30C0238DF80D3011238DF80E30C0EB3A
S214006ED000100F226946064B18442CF0DDFF054AC9
S214006EE013880133138005B05DF804FB02140020FC
S214006EF0001100200014002070B584B005464F4BEA
S214006F001B78DBB94D4B01221A7000234C4A1370D4
S214006F1001930293CDF80B304A4B1B7823B14A4BB2
S214006F201B88002B40F0878001221146284600F07F
S214006F300FFF424B00221A7004B070BD02F0D0FB67
S214006F4002F0CFFB4149424B186805F07DFD8022D8
S214006F500121284600F0FCFEEEE70024384B1C70AA
S214006F6002F0BEFB02F0BDFB3A49394B186805F04B
S214006F706BFD324B1C70DFE7354C3749206805F057
S214006F8063FD02F0ADFB02F0ACFB324633492068ED
S214006F9005F05AFD4BE00134A4B22B4B1B889C42F3
S214006FA0C2D2274B1B78002BD7D19DF8043043F074
S214006FB008038DF8043043F010038DF8043043F0D6
S214006FC020038DF8043043F040038DF80430C4EB02
S214006FD00412234B13445A788DF805209A788DF8BE
S214006FE0062001228DF8072000228DF808200521B2
S214006FF08DF80A1032218DF80B10D0208DF80C0079
S2140070008DF80D108DF80E200F22152128461CF045
S21400701033FA01AB0B22182128461CF02DFA06463F
S2140070200028B8D0022002F03BFB0028A4D1034B76
S21400703000221A7080E70024AFE700BFFD10002092
S214007040FE130020FE1000200014002034750300FC
S214007050EC34002054750300FC73030080750300B5
S214007060001100202DE9F04180460F46204B1B887A
S2140070708B4200D21F4613B10024012618E00126D9
S2140070801BE0C4EB04131B4A13440F221521404691
S2140070901CF0F2F9064602F023FB02F022FB434600
S2140070A03A461549154D286805F0CEFC0134E4B281
S2140070B01FFA84FCBC45E4D3A6B1022002F0F0FA25
S2140070C008B9BDE8F0810D4C0D49206805F0BCFC00
S2140070D002F006FB02F005FB32460A49206805F07E
S2140070E0B3FCEEE701221146404600F031FEE8E729
S2140070F00014002000110020A4750300EC340020CA
S214007100FC730300D075030038B50546012907D087
S21400711002292FD1234B1B883BB30024012021E0FA
S214007120204B1B880BB3013A94B201200AE0C4EB53
S21400713004131D4A13440F22152128461CF09CF9FF
S2140071400134A4B2174B1B88A342F0D80CE0C4EB62
S2140071500413154A13440F22152128461CF08CF9F7
S2140071600134A4B2012CF2D9A8B1022002F098FA98
S21400717018B938BDFFF74CFEFBE70C4C0C492068ED
S21400718005F062FC02F0ACFA02F0ABFA094920689E
S21400719005F05AFCEDE701221146284600F0D8FD1E
S2140071A0E7E700BF0014002000110020EC340020A8
S2140071B0FC730300FC75030070B51D46164B1B8858
S2140071C043B30646144601200AE0C4EB0412134BF0
S2140071D013440F22152130461CF04EF90134A4B298
S2140071E0AC42F2D988B1022002F05AFA90B10C4CA7
S2140071F00C49206805F028FC02F072FA02F071FAD9
S2140072000949206805F020FC04E0012211463046BA
S21400721000F09EFD70BD00BF00140020001100208D
S214007220EC340020FC7303002476030010B5134BE7
S2140072301B781BB10446124B1B8823B9022002F0B0
S2140072402FFA68B910BD0F4B0F2215211CF014F948
S2140072500028F3D101221146204600F079FDF1E71F
S214007260094C0A49206805F0EFFB02F039FA02F0F3
S21400727038FA0749206805F0E7FBE3E7FE10002030
S2140072800014002000110020EC340020FC730300E2
S2140072904476030010B5154B1B781BB10446144BFF
S2140072A01B8823B9022002F0FBF988B910BD013B08
S2140072B0C3EB03130F4A13440F2215211CF0DCF80E
S2140072C00028EFD101221146204600F041FDEDE7EF
S2140072D0094C0A49206805F0B7FB02F001FA02F0F3
S2140072E000FA0749206805F0AFFBDFE7FE10002034
S2140072F00014002000110020EC340020FC73030072
S2140073006476030008B5C379012B00D008BD038955
S214007310DBB2012B0ED0002BF8D102F0E1F902F01F
S214007320E0F90B490B4B186805F08EFB0A4B002260
S2140073301A70EBE702F0D4F902F0D3F90749054BCF
S214007340186805F081FB044B01221A70DEE700BFC7
S214007350A4760300EC340020FE10002080760300A4
S21400736008B502F0BDF902F0BCF90B490B4B1868E2
S21400737005F06AFB0A4B1888322802D0FFF77AFD20
S21400738008BD02F0ADF902F0ACF932220549034B14
S214007390186805F059FBF3E7C8760300EC340020C4
S2140073A000140020E476030010B50A4B1C880DE09C
S2140073B002F096F902F095F90749084B186805F0AF
S2140073C043FB2046FFF756FD0134A4B2312CEFD91B
S2140073D010BD00BF0014002014770300EC3400201A
S2140073E010B5044602F07CF902F07BF92449254BDF
S2140073F0186805F029FB204602F080FA01280BD118
S214007400214B9C4200D010BD204B01221A7006F082
S214007410CBFD1F4B1860F6E7204602F06FFA0028F7
S214007420F1D1194B9C42EED106F0BEFD184B1C68FC
S214007430041BFA2006F0CAFDA0420ED9134B002208
S2140074401A7002F04DF902F04CF912490D4B18680B
S21400745005F0FAFAFFF784FFD5E74FF47A7006F0E6
S214007460B5FDA042CFD902F03BF902F03AF932223C
S2140074700949044B186805F0E7FAFFF795FFC2E7DD
S2140074802C770300EC3400203C810300FC10002025
S214007490F01300203C7703004C77030008B5C3794F
S2140074A0012B00D008BD0389DAB2012AFAD163B1F4
S2140074B002F016F902F015F90A490B4B186805F0A8
S2140074C0C3FA0A4B01221A70ECE702F009F902F03F
S2140074D008F90749044B186805F0B6FA034B002272
S2140074E01A70DFE75C770300EC340020F41300200A
S2140074F08477030030B583B002220421154B187838
S2140075001BF0E6FE08B903B030BD0546124C134921
S214007510206805F099FA1249206805F095FA02F0FD
S214007520DFF802F0DEF80F4B00933E230E4A0F49B9
S214007530206805F089FA2B460D4A0E49206805F0AA
S21400754083FA284602F0F6F80B49206805F07CFA24
S214007550FEE700BFC80A0020EC34002004720300D7
S214007560A4720300EC790300AC770300B872030042
S214007570C4720300C8720300E072030030B58BB01B
S214007580454B1B78002B62D1172002238DF808305C
S21400759001238DF8093006238DF80A3003238DF871
S2140075A00B308DF80C3008228DF80D2018218DF840
S2140075B00E100B218DF80F108DF8102073218DF80A
S2140075C0111069228DF812206C228DF8132061228A
S2140075D08DF8142062228DF815208DF816102D21B6
S2140075E08DF817108DF8182067228DF819206D2257
S2140075F08DF81A208DF81B3019238DF81C300D23BA
S2140076008DF81D3000218DF81E1007238DF81F30D1
S2140076108DF82000214B1A788DF821205A788DF8A5
S21400762022209A788DF82320DA788DF824201A798B
S2140076308DF825205B798DF8263002AB1F2218487E
S21400764000781BF011FE054618B90BB030BD1820A7
S2140076509BE7144C1449206805F0F6F91349206896
S21400766005F0F2F902F03CF802F03BF8104B0093FC
S2140076705323104A1049206805F0E6F92B460F4AB6
S2140076800F49206805F0E0F9284602F053F80D4946
S214007690206805F0D9F9FEE703140020F81300204F
S2140076A0C80A0020EC34002004720300A472030011
S2140076B0D4790300AC770300B8720300C4720300E9
S2140076C0C8720300E072030008B502F009F802F081
S2140076D008F80549054B186805F0B6F9FFF74EFFA0
S2140076E0FFF708FF08BD00BFC0770300EC3400209A
S2140076F030B58BB003AB009306AB0A2207A9002077
S2140077001BF0A2FF079B002B5FD10BB030BD304DA6
S2140077103049286805F098F92F49286805F094F94B
S21400772001F0DEFF01F0DDFF2C4B00937F232C4A97
S2140077302C49286805F088F923462B4A2B492868E7
S21400774005F082F9204601F0F5FF2949286805F082
S2140077507BF9FEE701F0C4FF01F0C3FF0AAB234448
S21400776013F8082C23491A4B186805F06DF90134F4
S214007770E4B2052CEED901F0B3FF01F0B2FF1549D3
S214007780134B186805F060F90135EDB2079B9D4272
S214007790BBD20DF1090300930DF10A030DF10B02A4
S2140077A008A928461BF082FF04460028AFD101F046
S2140077B097FF01F096FF2B469DF80B200E490448D4
S2140077C0006805F041F90024D3E70025DEE700BF96
S2140077D0EC34002004720300A4720300C479030092
S2140077E0AC770300B8720300C4720300C8720300CB
S2140077F0E0720300FC770300D477030030B583B053
S2140078000446036823F47F4323F00703AE4A9342FB
S21400781000F0588200F29380AC4A934200F0C78191
S21400782019D9AB4A934200F0188202F5802293429F
S21400783062D1B0F805301D2B00F0C581272B00F073
S214007840CF8101F04DFF01F04CFFA249A24B186812
S21400785005F0FAF8AFE102F17F42934200F0608152
S21400786002F5403293420BD101F03AFF01F039FFA6
S214007870B4F805209949984B186805F0E5F89AE1A0
S214007880A2F50022934240F0328201F029FF01F077
S21400789028FF9349904B186805F0D6F801201BF096
S2140078A077FE03210E201BF053FE0546002800F04D
S2140078B09E80894C8B49206805F0C6F88A49206866
S2140078C005F0C2F801F00CFF01F00BFF874B0093A8
S2140078D09B23874A8749206805F0B6F82B46864AD8
S2140078E08649206805F0B0F8284601F023FF844951
S2140078F0206805F0A9F8FEE702F17F42934240F0C7
S214007900F681B0F80550A5F11B03142B00F29A81FE
S214007910DFE813F08F019801730198019801980130
S2140079208001980198018301980198018C019801C3
S2140079308601980189019801920198019501714A82
S214007940934200F0A4812BD96F4A934200F0338112
S21400795002F1847202F58032934240F0C88103201F
S21400796001F09EFE002840F09E81012120791BF048
S2140079704BFE002800F01F81032001F091FE002836
S21400798000F01981544C6149206805F05DF801F05B
S214007990A7FE01F0A6FE5E49206805F055F80AE14C
S2140079A002F17F42934200F0688102F5770293422B
S2140079B00AD101F095FE01F094FE62795549464BD6
S2140079C0186805F041F8F6E0A2F57C02934240F014
S2140079D08E81B0F80530182B00F0EF801D2B00F0DC
S2140079E0EF80152B40F0E780FFF78CFCE3E001F01A
S2140079F077FE01F076FE4849374B186805F024F804
S214007A00002403E0FFF7ACFC0134E4B2022CF9D901
S214007A10FFF76EFE41481BF0DBFB054610B32E4C0D
S214007A203049206805F010F82F49206805F00CF85A
S214007A3001F056FE01F055FE2C4B0093A3232C4A72
S214007A402C49206805F000F82B462B4A2B49206865
S214007A5004F0FAFF284601F06DFE2949206804F07C
S214007A60F3FFFEE700230093A02211462B48007880
S214007A701BF0CCFB054610B3174C1A49206804F0DF
S214007A80E3FF1949206804F0DFFF01F029FE01F04A
S214007A9028FE164B0093AC23154A1649206804F0BE
S214007AA0D3FF2B46144A1549206804F0CDFF28461C
S214007AB001F040FE1249206804F0C6FFFEE7FFF71B
S214007AC05DFDFFF717FD76E0A0000F02A00006019F
S214007AD0A0000602A4780300EC34002068790300B6
S214007AE00478030004720300A4720300B079030054
S214007AF0AC770300B8720300C4720300C8720300B8
S214007B00E0720300A0000F04A0000608147903002A
S214007B10447903000879030018780300C80A002097
S214007B20837A784D2B7001F0DBFD01F0DAFD2A78C0
S214007B307549764B186804F087FF754B60681860C7
S214007B4022899A800025052D0DD801F0C9FD01F087
S214007B50C8FD6F4B5A5D6F496C4B186804F074FF94
S214007B600135EDB2EFE701F0BBFD01F0BAFD6A4961
S214007B70664B186804F068FF657BFF2D0AD001F09D
S214007B80AFFD01F0AEFD2A466449604B186804F06C
S214007B905BFF10E0207B1BF019FD01F0A1FD01F05A
S214007BA0A0FD5F49594B186804F04EFF03E0817949
S214007BB08088FFF789FD03B030BDFFF76FFCFAE75A
S214007BC000F0A4F9F7E701F08BFD01F08AFD5549B6
S214007BD04E4B186804F038FF204600F0D3F9EAE769
S214007BE001F07EFD01F07DFD4F49484B186804F01A
S214007BF02BFF2046FEF7D0FCDDE701F071FD01F01B
S214007C0070FD4849414B186804F01EFF204600F0FE
S214007C10B9F9D0E7FEF74CFDCDE7FEF7B9FDCAE7A8
S214007C20FEF732FEC7E7FEF7A1FEC4E7FEF7C8FC84
S214007C30C1E700F013FABEE7FEF70AFFBBE7FEF760
S214007C407FFFB8E701F04CFD01F04BFD2A463749AF
S214007C502E4B186804F0F8FEADE701F041FD01F088
S214007C6040FDE27A01323249284B186804F0ECFEF7
S214007C70E37A01332F4A13709DE701F031FD01F0DE
S214007C8030FD2D49214B186804F0DEFE93E701F025
S214007C9027FD01F026FDB4F8052028491B4B18687F
S214007CA004F0D2FE87E7194D2549286804F0CCFE7B
S214007CB001F016FD01F015FD22682249286804F03F
S214007CC0C3FE52E6032001F0EBFC00283FF473AF3E
S214007CD00E4D1B49286804F0B7FE01F001FD01F0C7
S214007CE000FD22681849286804F0AEFE63E701F03C
S214007CF0F7FC01F0F6FC22681449044B186804F0FF
S214007D00A3FE58E70314002028780300EC34002074
S214007D10F8130020FC770300047203005478030075
S214007D20447803007C78030094780300BC78030052
S214007D30D4780300C90A0020E8780300F07803002E
S214007D40147903001C790300747903009C790300FE
S214007D5030B583B0114B01938DF806108DF80720CF
S214007D6001AB04221D211BF0BDFB08B903B030BDDA
S214007D700446022001F094FC0028F7D0084D09497B
S214007D80286804F061FE01F0ABFC01F0AAFC224674
S214007D900549286804F058FEE8E700BF0600010120
S214007DA0EC340020FC730300FC79030000B583B0BC
S214007DB04FF48173ADF8043001AB02221D211BF095
S214007DC091FB034B00221A8003B05DF804FB00BF52
S214007DD00014002030B583B00C461546074B0193BF
S214007DE001AB04221D211BF07DFB641B044B19888C
S214007DF011FA84F4013C1C8003B030BD0600020179
S214007E000014002010B50F4B1A880F4B9A70120AF8
S214007E10DA7004221D211BF065FB00B910BD02209C
S214007E2001F03EFC0028F9D0084C0949206804F00F
S214007E300BFE01F055FC01F054FC0649206804F0E6
S214007E4003FEEBE700140020CC0A0020EC340020F0
S214007E50FC730300287A030010B5114B1A88521AD7
S214007E6092B2013292B20F4B9A70120ADA70042262
S214007E701D211BF037FB00B910BD022001F010FCDD
S214007E800028F9D0084C0949206804F0DDFD01F00F
S214007E9027FC01F026FC0649206804F0D5FDEBE738
S214007EA000140020CC0A0020EC340020FC730300F1
S214007EB0507A030010B5837B027CD21A92B20F4B25
S214007EC09A70120ADA7004221D2100791BF00AFB50
S214007ED000B910BD022001F0E3FB0028F9D0084CE1
S214007EE00849206804F0B0FD01F0FAFB01F0F9FB48
S214007EF00549206804F0A8FDEBE700BFCC0A002087
S214007F00EC340020FC730300287A030008B5C3791C
S214007F10012B02D0022B20D008BD0389DBB2022B36
S214007F200ED0002BF8D101F0DBFB01F0DAFB104994
S214007F30104B186804F088FD0F4B00221A70EBE710
S214007F4001F0CEFB01F0CDFB0C490A4B186804F09B
S214007F507BFD094B01221A70DEE701F0C1FB01F040
S214007F60C0FB0749034B186804F06EFDD4E700BF5A
S214007F70A47A0300EC340020041400208C7A03005A
S214007F80BC7A030070B50546867A00240BE001F043
S214007F90A7FB01F0A6FB2B19DA7A2949294B1868AA
S214007FA004F052FD0134A642F1DC01F099FB01F029
S214007FB098FB2549234B186804F046FDEE7A2C7989
S214007FC0224B1B7893B1224B1B787BB1214B1B783D
S214007FD0012B11D000221D2120461BF02BFA731E08
S214007FE0032B1FD8DFE803F00E12161A81221D217C
S214007FF020461BF01FFA70BD0F221D2120461BF0E5
S21400800019FAF8E7284600F03FF8F4E7284600F0AB
S2140080100DF9F0E7284600F077F9ECE7284600F07F
S2140080209DF9E8E701F05CFB01F05BFB0A49054BB4
S214008030186804F009FD31462046FEF7EDFDDAE744
S214008040E07A0300EC34002004720300FE100020E7
S21400805004140020C90A00203074030000B585B05F
S21400806000790022ADF80C2004238DF80D300DF1B8
S2140080700E03019303AB009302231B211BF09EF912
S21400808005B05DF804FB000070B504460579037B77
S214008090867A062B00F2A980DFE803F004081B327C
S2140080A0618D9A002846FEF7EBFD70BD01F018FBC7
S2140080B001F017FB5349544B186804F0C5FC022E18
S2140080C003D02846FEF740FEEFE72846FEF714FFEB
S2140080D0EBE701F005FB01F004FB4C494A4B18683E
S2140080E004F0B2FC052E03D02846FEF72DFEDCE792
S2140080F0A37BE17B43EA01212846FEF7B3FFD4E7E2
S21400810001F0EEFA01F0EDFA41493F4B186804F031
S2140081109BFC617B01290DD0A27BE37B42EA032214
S21400812001290DD04B1EDBB2012B12D82846FEF7D4
S214008130EBFFBAE7052EEFD02846FEF705FEB4E7BC
S214008140344B1B789342EDD206222846FFF700FEFA
S214008150ABE7092201212846FFF7FAFDA5E701F063
S214008160BFFA01F0BEFA2C49274B186804F06CFCE5
S214008170072E14D1617BA27BE37B42EA0322237C99
S214008180607C43EA00239A420DD82448008898422F
S21400819001D390420BD22846FEF708FE85E7284614
S2140081A0FEF7D2FD81E72846FEF700FE7DE728466B
S2140081B0FFF702F879E701F093FA01F092FA18490E
S2140081C0114B186804F040FC2846FFF72FF86CE7C0
S2140081D001F086FA01F085FA12490B4B186804F094
S2140081E033FC2846FFF756F85FE701F079FA01F00E
S2140081F078FA0D49044B186804F026FC2846FEF76A
S21400820071FD52E7E87A0300EC340020FC7A0300A4
S214008210187B030002140020347B030000140020A7
S214008220687B03007C7B0300907B030070B50446EC
S2140082300679857A012D11D9237B012B12D0042BC8
S2140082401DD001F04DFA01F04CFA2949294B186867
S21400825004F0FAFB3046FEF745FD0FE03046FEF729
S2140082600FFDE9E701F03CFA01F03BFA2249214B09
S214008270186804F0E9FB2079FFF798FD70BD01F05F
S2140082802FFA01F02EFA1D491A4B186804F0DCFB91
S214008290072D14D1637B94F90E50EDB294F910407B
S2140082A0E4B2012B0FD1A5421AD8154B1B78A34276
S2140082B01AD9224629463046FFF78CFDDEE73046BF
S2140082C0FEF742FDDAE701F00BFA01F00AFA0D4973
S2140082D0084B186804F0B8FB3046FEF799FDE2E755
S2140082E03046FEF763FDC9E73046FEF75FFDC5E79B
S2140082F0E87B0300EC340020B47B0300C87B03005B
S214008300021400201C75030070B50446C67A057971
S214008310837A022B0AD1237B63B12846FEF7E2FC60
S214008320012231462846FFF713FD70BD2846FEF7AA
S214008330A7FCF0E7064B01221A7001F0D1F901F014
S214008340D0F90449044B186804F07EFBE8E700BF48
S214008350FE130020087C0300EC34002038B50446E9
S2140083600579037B827A032B11D0042B2AD0012BAC
S21400837003D02846FEF7B6FC30E0022A03D0284693
S214008380FEF7E2FC2AE02846FFF73CFD26E0052A39
S2140083900CD1437B847B012B0CD1114B1B88A34251
S2140083A00CD321462846FFF757FD17E02846FEF770
S2140083B0CBFC13E02846FEF72BFD0FE02846FEF721
S2140083C027FDEEE701F08CF901F08BF90549064B25
S2140083D0186804F039FB2046FFF76CFD38BD00BF77
S2140083E0001400202C7C0300EC34002008B505F0B7
S2140083F0DEFFFDF705FF05F0E6FFFEF737F805F0B0
S21400840075F9F8E708B50AF019FF08BD08B503487E
S2140084100AF0C2FC02480AF0EFFC08BDDC8003004C
S214008420BC80030010B5044601F058F82046FEF75D
S2140084301FF82046FFF7E2F910BD0120704700B58F
S214008440C3B00AF013FE0AF03CFE10B943B05DF864
S21400845004FBFFF7F2FF0028F8D001A81AF0B2FEDE
S2140084600028F3D101A8FFF7DDFFEFE708B50321E9
S214008470802002F0FDF903214FF4806002F0F8F945
S21400848003214FF4906002F0F3F909214FF4C06025
S21400849002F0EEF909214FF4F06002F0E9F9092143
S2140084A03E2002F0E5F909212D2002F0E1F9002036
S2140084B008BD08B500F0BCF808BD000008B5164BAE
S2140084C01B68C3F30743012B12D004F051F803F0E6
S2140084D0E3FF04F069F804F003F804F043F8FFF74C
S2140084E0C5FF03F0EBFF01F031FB05F037F808BDE0
S2140084F00A4B5A6E03F580534FF48021596603F5F4
S21400850010430421196212F4802FDED1A3F5004334
S2140085104FF480225A66D8E70080E00F00800040C3
S21400852008B501F0C5FA00F0EBF808BD08B505F08F
S2140085303BFC04F03DF8FFF7BCFF04F0D7FA07F069
S2140085405AFE04F017FE08BD08B503F087FF03F0D7
S2140085508FFFFFF75BFF08BD08B501F0C3F808BD45
S214008560704708B501F05EF808BD08B5FFF767FF6D
S21400857008BD704710B592B0174C0DF12C0CA646EE
S214008580BEE80F00ACE80F009EE807008CE8070086
S21400859000230793089309930A93104B0793292304
S2140085A0ADF8203005238DF8233006238DF82530CE
S2140085B001238DF82A300DF10C0C04F11C030FCBAF
S2140085C08CE80F00064B009307AB0BAA61460548E4
S2140085D004F0D2FC12B010BD0C810300000006406F
S2140085E0081400206814002008B5831EDBB2012B97
S2140085F004D90239C9B201290CD908BD0129F8D815
S2140086000A4B1B69C3F3401304220521002002F025
S214008610AFFDF2E70128F0D8044B1B69C3F3401303
S21400862000220521104602F0A3FDE6E700C0034045
S21400863008B50349034805F017F8FFF79BFF08BD88
S214008640240B00204014002008B5024B186804F0E4
S2140086505FFD08BD6814002008B5024B186804F0DA
S21400866057FD08BD6814002008B5024B1A6A186842
S214008670904708BD6814002001207047012070470D
S21400868038B50AF05FFD044601F000F8054600B173
S2140086902546FFF7F1FF00B1284638BD38B505F08E
S2140086A0DBF804460AF05CFD042817D0022817D031
S2140086B00025FFF7D9FF042815D0022815D000F0B2
S2140086C0DBFF042813D0022813D0FFF7D7FF0428B7
S2140086D013D002280FD08DB100240FE00125E8E763
S2140086E000250124E5E70125E9E70124E7E7012560
S2140086F0EBE70124E9E70124EDE70024204638BD36
S21400870008B5024801F0F2F808BD00BF3C8103003E
S21400871010B586B0EC46264C0FCCACE80F0094E8BB
S21400872003008CE8030001213A2001F047FC0121F8
S214008730282001F043FC01248DF80E404FF400730E
S214008740ADF810301B4B0293002322460321184637
S21400875002F00EFD002304221146184602F008FD22
S214008760002304221146022002F002FD23460422C2
S2140087700221084602F0FCFC002322461946204649
S21400878002F0F6FC0C4B4FF44032C3F82C264FF4A4
S2140087908022C3F834260232C3F830261C22C3F8DF
S2140087A01C266946054803F0E3FC06B010BD00BF72
S2140087B05481030040420F0000C0034000C0054043
S2140087C02DE9F04182B005460F464D4B04221A674C
S2140087D0012000F021FE07F1FF3808F0030848F0FA
S2140087E020084146474803F011FD474B1870002407
S2140087F009E0FF21434803F009FD02AB234403F8D8
S214008800040C0134E4B2BC42F3D3012000F004FEB1
S2140088103E4B03F5805104220A6703F500531A679E
S214008820012000F0F9FD6E1E06F0030646F0400635
S2140088303146344803F0EAFC334B1870002407E056
S214008840AA21304803F0E2FC314B18550134E4B25B
S214008850AC42F5D3012000F0DFFD2C4B03F5805130
S21400886004220A6703F500531A67012000F0D4FDBE
S2140088704146244803F0CAFC234B1870002407E046
S214008880FF21204803F0C2FC214B18550134E4B206
S214008890BC42F5D3012000F0BFFD1E4B04221A6730
S2140088A00023AB4207D21A4AD25CAA2A02D101336D
S2140088B0DBB2F6E7FEE7124B04221A67012000F04F
S2140088C0ABFD31460F4803F0A1FC0F4B1870002497
S2140088D00AE002AB234413F8041C0A4803F096FC93
S2140088E00B4B18550134E4B2AC42F2D3012000F031
S2140088F093FD084B04221A6702B0BDE8F08100BF62
S21400890000E0034000C005409714002000C003406C
S2140089108C14002000D0034038B50B4C04F50053EF
S21400892004251D67012000F077FD0621074803F0A7
S2140089306DFC012000F070FD04F5805425670520CD
S21400894000F06AFD38BD00BF00C0034000C005400F
S21400895038B5094C04F5005304251D67012000F0C6
S2140089605BFD0821054803F051FC012000F054FD92
S21400897004F58054256738BD00C0034000C005409C
S214008980F8B5144D05F5005304271F67012000F0C5
S21400899043FD114C4221204603F038FC502120466E
S2140089A003F034FC0D4E30700021204603F02EFC00
S2140089B070704021204603F029FCB070002120464C
S2140089C003F024FCF070012000F026FD05F580552C
S2140089D02F67F8BD00C0034000C005408C1400207F
S2140089E0F8B5FFF7B5FF642000F016FD154D05F548
S2140089F0005304271F67012000F00EFD124E1021C1
S214008A00304603F003FCFF21304603F0FFFB0F4C1B
S214008A102070FF21304603F0F9FB6070FF213046DE
S214008A2003F0F4FBA070012000F0F6FC05F580557D
S214008A302F67207863781B0243EA0043A078184328
S214008A40F8BD00BF00C0034000C005408C140020E5
S214008A5008B5FFF7C5FFB0F5000F01D300F17F4062
S214008A602AF07AFC0022074B2AF0F0FC02460B465E
S214008A702AF036FB4FF06042034B2AF011FE41EC21
S214008A80100B08BD0000F43FFFFF6F41F8B52DED59
S214008A90028B1C4C04F5005704253D67012000F0AE
S214008AA0BBFC194E4421304603F0B0FB0221304691
S214008AB003F0ACFB012000F0AFFC04F58054256702
S214008AC0FFF78EFF800A2AF047FC00220F4B2AF0A1
S214008AD0BDFC41EC180B3D67012000F09DFC4421D5
S214008AE0304603F093FB0021304603F08FFB012055
S214008AF000F092FC2567B0EE480AF0EE680ABDEC7E
S214008B00028BF8BD00C0034000C005400000A03F37
S214008B1010B52DED028B00F047F9B0EE408AB7EEA7
S214008B20040A00F07DF9002402E0FFF759FF013443
S214008B30092CFAD99FED0C0A00F072F9002402E025
S214008B40FFF74EFF0134092CFAD9002402E0FFF7A4
S214008B5047FF0134092CFAD9B0EE480A00F060F954
S214008B60BDEC028B10BD00BF0000000008B5012060
S214008B7000F052FCFFF7CCFDFFF7CEFE0A2000F017
S214008B804BFC0321074B19700220074B1870FFF7A8
S214008B9017FEFFF7F5FEFFF7DBFE642000F03CFC57
S214008BA0012008BD961400209814002030B585B02A
S214008BB01D4B6C460FCB84E80F0001213A2001F0D4
S214008BC0FDF901212E2001F0F9F901230B221946A7
S214008BD0184602F0CDFA01230B220221184602F0B5
S214008BE0C7FA124AD2F8983423F4702323F003030A
S214008BF043F4003343F00103C2F89834D2F89434B7
S214008C0023F4702323F0030343F00113C2F89434D3
S214008C100323C2F89034064D2146284602F074FB22
S214008C201023AB6005B030BD6C81030000C003406C
S214008C300000014A00B589B08DF80710ADF80C00A9
S214008C400421ADF80E100DF1070104910121ADF8D5
S214008C5014100692ADF81C3003A9074802F0EEFC8B
S214008C6002E0054802F072FB0128FAD000B1FEE7E8
S214008C7009B05DF804FB00BF0000014A00B589B0EA
S214008C808DF80010002109E002EB010C01319CF880
S214008C9000E00DF1200C8C440CF820EC8B42F3DC49
S214008CA0ADF80C000122ADF80E20CDF810D013441C
S214008CB0ADF8143000230693ADF81C3003A907481E
S214008CC002F0BCFC02E0054802F040FB0128FAD0A6
S214008CD000B1FEE709B05DF804FB00BF0000014AE2
S214008CE010B5064C0223224601219020FFF7A2FF72
S214008CF06378207843EA002010BD00BFA01400204F
S214008D0041F29513984200D0FEE70120704700001C
S214008D1008B5054A002313705070022319469020A8
S214008D20FFF7ACFF012008BDAC14002008B5054ACB
S214008D3011705070022304219020FFF79FFF01203E
S214008D4008BD00BFAC14002008B5064A0023137007
S214008D5000015070022305219020FFF78FFF0120AD
S214008D6008BD00BFAC14002008B5064A00231370E7
S214008D7006235370022305219020FFF77FFF012072
S214008D8008BD00BFAC14002010B5064C02232246D6
S214008D9007219020FFF74EFF6378207843EA0020F3
S214008DA010BD00BFA014002010B5134C02232246AD
S214008DB008219020FFF73EFF2078637803F0FC033D
S214008DC043EA00202AF0D8FA00220C4B2AF03EFB99
S214008DD000220B4B2AF03AFB05A3D3E900232AF026
S214008DE05FFC2AF015FE00EE100A10BDAFF30080FF
S214008DF00000000080FFCF40A01400200000F43FD9
S214008E000000D03F08B5054A1070517002230821B3
S214008E109020FFF733FF012008BD00BFAC140020F0
S214008E2008B5F7EE047AB4EEE70AF1EE10FA01DDC3
S214008E30B0EE670AB5EEC00AF1EE10FA16D4B7EE39
S214008E40047AC0EE077AB1EE007A67EE877A9FED75
S214008E50097A67EE877AFCEEE77A17EE900AC1B2D7
S214008E60C0F30720FFF7CEFF012008BD9FED020AE2
S214008E70E5E700BF00FC7F460000000010B5FFF7E6
S214008E8095FEFFF771FFFFF72BFFFFF739FF012174
S214008E900020FFF74BFF0120FFF73AFF0C4CB6EE21
S214008EA0040A84ED000AFFF7BBFF0120FFF74CFF22
S214008EB00020FFF72DFFFFF777FF84ED000A9FEDF8
S214008EC0050A84ED000AFFF7ABFFFFF75DFF10BD54
S214008ED09C1400209A99993F70B582B01E4D6E463C
S214008EE01E4C2146304602F001FF96E8030085E856
S214008EF0030028682AF030FA0022194B2AF0A6FA56
S214008F0002460B462AF0ECF811A3D3E900232AF018
S214008F10C7FB144BC3E9000104F500540123636248
S214008F20114B1B68B3F5806F01D302B070BD0E4BBA
S214008F301C680C4AD2E900010C4A02EBC402C2E9E2
S214008F4000011A6801321A60022000F065FAECE7A8
S214008F5000000000E0FFEF40CC3400200040004A54
S214008F600000F43FD8340020C8340020C814002085
S214008F70044B03F5005101224A60186503F580533F
S214008F805A6070470040004A30B583B0184B012243
S214008F90DA60174B5B6903F4A073B3F5807FF8D1F2
S214008FA0144C6D461249284602F0A0FE95E80300D0
S214008FB084E8030020682AF0CFF900220E4B2AF03E
S214008FC045FA02460B462AF08BF807A3D3E900239E
S214008FD02AF066FB094BC3E9000193ED000B03B0D2
S214008FE030BD00BFAFF3008000000000E0FFEF40A0
S214008FF00040004ACC3400200000F43FD834002063
S214009000F0B583B0074600240025002619E0134B70
S2140090100122DA60114B5B6903F4A073B3F5807F1D
S214009020F8D10E49684602F061FE00982AF0A4F9CD
S21400903002460B46204629462AF052F804460D46BC
S2140090400136BE42E3D30022054B204629462AF0CD
S214009050FDF941EC100B03B0F0BD00BF0040004A24
S2140090600000503F70B592B000250F9510951195F1
S2140090700DF1140C304C0FCCACE80F000FCCACE864
S2140090800F0094E803008CE803000395049503237F
S2140090908DF80E3001268DF808608DF809508DF891
S2140090A00A508DF80B5031462A2000F087FF234CDB
S2140090B0204602F091FB02214FF4B06001F0D8FB8D
S2140090C002238DF83F302A461D49204602F00EFC4A
S2140090D08DF841008DF8176000902B462A461949F6
S2140090E0204602F01DFC079004238DF815308DF8FD
S2140090F00E508DF811508DF80C60A0238DF80930B5
S214009100A1238DF8083005AA0FA9204602F02EFCF0
S21400911002AA03A9204602F01FFB0B4BD3F8282314
S2140091203243C3F82823D3F8282342F48032C3F806
S214009130282312B070BD00BF7C8103000040004AA7
S214009140002D31018096980000C00340F0B593B022
S21400915000250F95109511950DF1140C2D4C0FCC84
S214009160ACE80F000FCCACE80F0094E803008CE8E6
S21400917003000395049503238DF80E3001268DF821
S21400918008608DF809508DF80A508DF80B5031465E
S2140091902A2000F013FF02214FF4B06001F068FBB4
S2140091A002278DF83F701C4C2A461C49204602F0C8
S2140091B09DFB8DF841008DF817608DF818700090B3
S2140091C02B462A461649204602F0AAFB079004239F
S2140091D08DF815308DF80C60A0238DF80930A1238A
S2140091E08DF8083005AA0FA9204602F0BFFB02AA98
S2140091F003A9204602F0B0FA0A4BD3F828233243DC
S214009200C3F82823D3F8282342F48032C3F828234F
S21400921013B0F0BD7C8103000040004A002D3101F0
S2140092208096980000C00340F8B5FFF78FFF5A4BB2
S2140092301A6D1B6D5948FFF79BFEB7EE040AFFF741
S214009240EFFD4FF48060FFF7DBFE55EC104B9FED13
S214009250540AFFF7E5FD4FF48060FFF7D1FE53ECAC
S214009260102B2046294629F039FF02460B4646A118
S214009270D1E900012AF014FA04460D46494BC3E929
S21400928000450022484B2AF067FB002840D0002209
S214009290454B2046294629F021FF0022434B2AF061
S2140092A0D5F80022424B29F01BFF2AF091FB04461A
S2140092B0800440F000404FF00045FFF759FE4FF4A1
S2140092C08060FFF79DFE57EC106B0022394B10EEC6
S2140092D0100A39462AF0BAF802460B4629F000FF73
S2140092E02BA3D3E900232AF0DBF9334BC3E90001B3
S2140092F00022324B304639462AF0A8F82AF040FBC6
S214009300B0F5003F18DA10F5003F16DA2C4814E0E6
S21400931000222C4B2046294629F0E0FE0022234B53
S2140093202AF094F80022224B29F0DAFE2AF050FBAD
S214009330044680040025C0E7234845EA8445C0F378
S214009340110005432846FFF713FE4FF48060FFF731
S21400935057FEB7EE000AFFF763FD022000F05CF848
S214009360002408E0FFF710FE184B03EBC40383ED60
S214009370000B0134E4B2132CF4D9074802F02CFA9F
S2140093802846F8BDAFF3008000000000C0FFDF40B5
S21400939000000000E0FFEF400040004A00000280AE
S2140093A000000000B81400200000F03F0000E0407D
S2140093B00000E03F0000F43FC0140020000030C072
S2140093C00000FEFF0000E83FFFFF0100C814002079
S2140093D030B585B0002400940194029403940125CE
S2140093E08DF8005009214FF4C06001F041FA29467B
S2140093F02C2000F0E3FD8DF800408DF80140694612
S2140094004FF0944002F093FC21464FF0944002F057
S2140094107DFC05B030BD000010B529F09DFF13A3FC
S214009420D3E900232AF012F802460B464FF06040BC
S2140094300D4929F053FE2AF0CBFA044601214FF0DD
S214009440944002F069FC4FF0944002F059FCA042B0
S214009450F9D200214FF0944002F058FC00214FF062
S214009460944002F059FC10BDFFFF6F41FCA9F1D2F9
S2140094704D6240400000000070B52DED028B164B8B
S2140094801E6DF6B25C6DC4F3880401F0C7FDB0EE45
S214009490408A204629F060FF0DA3D3E9002329F077
S2140094A01DFE04460D46304629F056FF02460B4682
S2140094B02046294629F012FE2AF0AAFA00EE100AE3
S2140094C038EE400ABDEC028B70BD00BFAFF30080E3
S2140094D066666666661271400080E00F30B583B03F
S2140094E0036823F47F4323F00703364A934260D091
S2140094F0044602F18272934203D1B0F80530322B53
S21400950001D003B030BD304B01221A700022322148
S214009510007919F08FFF054610B32C4C2C492068B3
S21400952003F092FA2B49206803F08EFA00F0D8F880
S21400953000F0D7F8284B00933F23284A2849206894
S21400954003F082FA2B46274A2749206803F07CFA64
S214009550284600F0EFF82549206803F075FAFEE784
S214009560207919F0D7FE05460028CAD0174C1849AE
S214009570206803F069FA1749206803F065FA00F0DE
S214009580AFF800F0AEF8144B00934323134A144987
S214009590206803F059FA2B46124A1349206803F054
S2140095A053FA284600F0C6F81049206803F04CFA33
S2140095B0FEE7054B1B78002BA3D002201AF0A8F874
S2140095C09FE700BFA0000601E0340020EC34002036
S2140095D004720300A472030018820300A48103002F
S2140095E0B8720300C4720300C8720300E07203007E
S2140095F00B4B1B68002201E01A461B6A0BB1834224
S214009600FAD1834201D0002070471AB1036A136270
S21400961001207047026A024B1A600120704700BFA3
S214009620E4340020124B1B680BB310B5114B1C68BA
S21400963004E0A369E16920469847246AB4B194F827
S2140096402430002BF9D001F01EFB002384F82430D0
S214009650074A1368013B136001F01BFB94F82530A2
S214009660002BE6D12046FFF7C3FFE2E710BD7047A8
S214009670E8340020E4340020034B1B680BB90120BB
S21400968070470420704700BFE8340020034B1B6877
S2140096900BB9012070470020704700BFE834002057
S2140096A003460B4A107828B10A4A12789A4202D228
S2140096B0002000E00120084A12783AB1074A1278E2
S2140096C042FA03F313F0010F00D10020704700BFE9
S2140096D0380B0020390B0020F03400203A0B002015
S2140096E07047704708B5084B01221A70074B0022D6
S2140096F01A70074B04221A70064B1F221A7003F0CA
S21400970061F9054B186008BD380B0020F0340020C6
S214009710390B00203A0B0020EC34002008B5034932
S214009720034B186803F090F908BD00BF30820300B1
S214009730EC34002070B506460A4C0B49206803F04E
S21400974083F903F03FF90546206803F02FF9304609
S214009750FFF7E4FF284603F029F90449206803F0E0
S21400976073F970BDEC3400203482030038820300A5
S214009770FEE7000008B500F013F8064B064A03E0C3
S21400978052F8041B43F8041B04498B42F8D3FCF739
S214009790FBFC00BFC00A00207CCC0300AC100020FD
S2140097A0044B054A9A60D3F8882042F47002C3F846
S2140097B08820704700ED00E000600000014B18684C
S2140097C0704700BF400B002008B5094B1B6F03F025
S2140097D00703022B04D0032B05D0012B06D0FEE78F
S2140097E0FFF7ECFF03E0034B186800E0024808BDF3
S2140097F000800040440B0020002D310108B5FFF723
S214009800E3FF054B1B6FC3F303330133B0FBF3F0E9
S214009810024B186008BD00BF008000403C0B0020D3
S2140098200048704700B4C404014B1868704700BF76
S214009830440B002008B5064B1860064B1B6F03F060
S2140098400703032B00D008BDFFF7D8FFFBE700BFD8
S214009850440B0020008000400020704700487047FE
S214009860002D31014FF4004070474FF47A70704776
S214009870014B1868704700BF480B002000239B6A06
S214009880B3F5C04F07D21A680A4B9A4207D0002396
S2140098900370836070470023037083607047012362
S2140098A0037000239A6A926842609B6A9B69836091
S2140098B0704700BF07B0CD5E0023036070470368A3
S2140098C00B600160704700000346064A10680344B8
S2140098D0054A934202D8034A136070474FF0FF30A0
S2140098E0704700BF4C0B00200080002008B543687E
S2140098F013B10068984708BD2220FCE708B5436905
S21400990013B10068984708BDFF20FCE708B50023A0
S21400991001E00133DBB2124A12789A421FD99C4604
S214009920104A52F82320126851798142F1D192F8F8
S21400993000E0BEF1020FECD0137903EB43031B01EA
S2140099400948C35823FA01F111F0010F0CBF012397
S21400995000231370034B53F82C00FDF741FD08BDA0
S21400996038810300340B002014C0034010B582B0C9
S214009970044601213A2000F021FB002301226179F0
S214009980207901F0F5FB2379617903EB43031B0192
S2140099900E4AD358CB4013F0010F0CBF012300230F
S2140099A02370A379022B02D0002002B010BD00F075
S2140099B07FF80749607900F093F8617901230193F5
S2140099C000930A46207901F03FFBEDE714C0034000
S2140099D00D990000007870470378022B11D00379A8
S2140099E0417903EB43031B01124AD358CB4003F0E3
S2140099F001010B468279012A04D012B981F00101D7
S214009A00017070474288520092B2134343F47F437A
S214009A1043F0C0034FF6E072934205D04FF6DF7274
S214009A20934204D04380704701220270F6E700227A
S214009A300270F7E714C0034008B50378022B00D085
S214009A4008BD00234380FFF791FFF9E70378022B58
S214009A5016D010B582B004468379022B03D00223B9
S214009A60237002B010BD0021407900F039F861790A
S214009A700023019300930A46207901F0E5FAEEE709
S214009A807047000010B5044600E098476CB194FAA1
S214009A90A4F3B3FA83F00122824024EA0204034AC4
S214009AA052F82030002BF0D1F0E710BDF43400203F
S214009AB008B5192001F0F0F828B1084B4FF00072F5
S214009AC0C3F880211A601A2001F0E6F828B1034B8B
S214009AD04FF08062C3F880211A6008BD00E100E004
S214009AE038B504460D4601F0CEF8034B43F8245033
S214009AF001F0CFF838BD00BFF434002008B5084B9D
S214009B00D3F82404D3F82024104000F0553020F079
S214009B10502003F50053C3F82004FFF7B3FF08BD39
S214009B2000C0034008B5084BD3F82404D3F820241B
S214009B30104000F0AA3020F0A02003F50053C3F830
S214009B402004FFF79FFF08BD00C0034008B5034B85
S214009B501968034B186821F0ABFE08BD540B0020B3
S214009B60500B0020B0F1FF3F01D010B970470248FB
S214009B7070470248704700BF21E000F024E000F084
S214009B808908002301E0043001338B4205D20268C5
S214009B90B2F1FF3FF7D000207047012070477047B2
S214009BA038B504462DF0FCFAFFF7DCFF054650B941
S214009BB0074B9B680A3303F01F0301219940204698
S214009BC0FFF7DEFF08B1284638BD024DFBE700BFB1
S214009BD00080E00F0EE000F0F8B505460E46940053
S214009BE022462DF0EDFAFFF7BDFF074608B13846CE
S214009BF0F8BD2246314628462AF03EF90028F6D01F
S214009C00004FF4E710E000F008B50346084613F0EE
S214009C10030F02D111F0030F0AD0920019462AF062
S214009C203BF9002008BD53F8041B40F8041B013A1A
S214009C30002AF8D1F5E7000010B582B0044601A866
S214009C4002F070F99DF8063023800122E2700020B1
S214009C50A070054B9B680A3303F01F0302FA03F358
S214009C60636002B010BD00BF0080E00F08B502F0D0
S214009C70ADF808BD08B502F099F8002008BD000050
S214009C8008B500F0F9FF014B186008BD083C00203D
S214009C9008B5024B186800F0F3FF08BD083C00202A
S214009CA008B50A464118013903F0C8FA08BD000095
S214009CB0024B4FF480321A67704700BF0090004096
S214009CC038B505460C46FFF77FFD05B128600CB198
S214009CD00D23237038BD000038B505460C460F4BE3
S214009CE0D3F8203103F00303022B0ED0032B10D041
S214009CF0012B06D00023184605B1286004B1237056
S214009D0038BDFFF75BFD0523F6E7FFF78DFD032360
S214009D10F2E7FFF7A3FD0223EEE700BF0080004056
S214009D2030B583B005460C46002301930D4BD3F89F
S214009D30803103F00303012B09D0022B0DD0002342
S214009D400DB1019A2A6004B1237003B030BD002122
S214009D5001A8FFF7C1FF0F23F2E7FFF77FFD019091
S214009D600223EDE70080004038B505460C46164B4A
S214009D70D3F8243103F00703013B052B20D8DFE896
S214009D8003F0030F171B0B13FFF718FD052305B190
S214009D90286004B1237038BDFFF710FD0623F6E7F0
S214009DA0FFF742FD0323F2E7FFF73EFD0423EEE74D
S214009DB0FFF754FD0223EAE7FFF74EFD0723E6E729
S214009DC000231846E3E700BF0080004038B505468C
S214009DD00C46104BD3F8000100F00300032815D8FA
S214009DE0DFE800F002080C10012305B1286004B17A
S214009DF0237038BDFFF718FD0323F6E7FFF738FD9D
S214009E000823F2E7FFF728FD0723EEE700231846AE
S214009E10EBE700BF0080004038B505460C460F4B08
S214009E20D3F8403103F00303022B0ED0032B10D0DF
S214009E30012B06D00023184605B1286004B1237014
S214009E4038BDFFF70FFD0923F6E7FFF711FD0823DE
S214009E50F2E7FFF70AFD0B23EEE700BF00800040A5
S214009E6008B50B4BD3F8203203F00303012B08D0C0
S214009E70022B09D008B10023036021B100230B7028
S214009E8001E0FFF729FF08BDFFF7C6FFFBE700BFAD
S214009E900080004030B583B005460C460023019391
S214009EA04FF0E0231B6913F0040F0ED0FFF7A6FC5B
S214009EB001900C238DF803300DB1019B2B6014B17B
S214009EC09DF80330237003B030BD0DF1030101A8E7
S214009ED0FFF7A2FFF0E7000038B505460C46124B28
S214009EE0D3F8003203F00703013B032B18D8DFE852
S214009EF003F0020A0E12FFF7B5FC092305B128602D
S214009F0004B1237038BDFFF7B3FC0823F6E7FFF76C
S214009F10ACFC0B23F2E7FFF771FC800A0E23EDE79B
S214009F2000231846EAE700BF0080004038B5054623
S214009F300C460F4BD3F8403203F00303022B0ED02F
S214009F40032B10D0012B06D00023184605B128603D
S214009F5004B1237038BDFFF785FC0923F6E7FFF749
S214009F6087FC0823F2E7FFF780FC0B23EEE700BF31
S214009F700080004038B505460C460F4BD3F86031DC
S214009F8003F00303022B0ED0032B10D0012B06D0B8
S214009F900023184605B1286004B1237038BDFFF7CA
S214009FA061FC0923F6E7FFF763FC0823F2E7FFF7F7
S214009FB05CFC0B23EEE700BF00800040430907D09F
S214009FC0012B10D0022B01D0094A02E0094A00E01A
S214009FD0002200F01F0041B102F58052012303FA6F
S214009FE000F010607047044AF3E702F50052F5E708
S214009FF0608200406880004064800040B0F5207FAA
S21400A00020D00ED8B0F5007F16D020D810B1B0F50D
S21400A010C07F04D10F4B186FC0F3033018E0002048
S21400A02016E0B0F5607F05D10A4BD3F88000C0F388
S21400A03001100DE000200BE0064BD3F89000C0F3B3
S21400A040046005E0034B186FC0F3802000E000209A
S21400A050013070470080004010B582B000230193A5
S21400A0600093B0F5807F00F2EF802028C0F0E780F4
S21400A0702038E02800F2E580DFE810F02C011E0111
S21400A0802C011E0133013301330133011E011E0171
S21400A09060014F013E016A014F011E011E011E01B3
S21400A0A0E300E300E300E300E300E30046015B01B6
S21400A0B01E011E011E01F4006F011E01E300E300F5
S21400A0C0E300E300E300E300E300E300E300E30073
S21400A0D0E300E300E3002C01E3002C012C012C013B
S21400A0E03301E300E300E300E300E300E300E30002
S21400A0F0E300E300E300E300E300E3002C012C01AF
S21400A100E300E300E300E300E300E300E300E30032
S21400A110E300E300E300E300E300E300E300E30022
S21400A120E300E300E300E300E300E300E300E30012
S21400A130E300E300E300E300E300E3004B01E30099
S21400A140E300E300E300E300E300E300E300E300F2
S21400A150E300E300E300E300E300E300E300E300E2
S21400A160E300E300E300E300E300E300E300E300D2
S21400A170E300E300E300E300E300E300E300E300C2
S21400A180E300E300E300E300E300E300E300E300B2
S21400A190E300E300E300E300E300E300E300E300A2
S21400A1A0E300E300E300E300E300E300E300E30092
S21400A1B0E300E300E300E300E300E300E300E30082
S21400A1C0E300E300E300E300E300E300E300E30072
S21400A1D0E300E300E300E300E300E300E300E30062
S21400A1E0E300E300E300E300E300E300E300E30052
S21400A1F0E300E300E300E300E300E300E300E30042
S21400A200E300E300E300E300E300E300E300E30031
S21400A210E300E300E300E300E300E300E300E30021
S21400A220E300E300E300E300E300E300E300E30011
S21400A230E300E300E300E300E300E3006501002839
S21400A24048D0019802B010BDB0F5906F71D00ED90D
S21400A250B0F5D06F7CD049D9B0F5E06F7DD0B0F5C1
S21400A260F06FEED1002101A8FFF784FEE9E7B0F514
S21400A270407F52D00FD9B0F5607F2FD100216846BD
S21400A280FFF71EFD009C4FF46070FFF7B7FEB4FBAF
S21400A290F0F40194D5E7B0F5007F0AD1FFF794FA01
S21400A2A004464FF40070FFF7A9FEB4FBF0F40194E7
S21400A2B0C7E7B0F5207F0AD1FFF7A0FA04464FF4AF
S21400A2C02070FFF79BFEB4FBF0F40194B9E7B0F5FD
S21400A2D0C07FB6D1FFF792FA0190B2E7B0F5806F73
S21400A2E0AFD1002101A8FFF7F7FCAAE7B0F5B06FE1
S21400A2F024D0B0F5C06F04D1002101A8FFF78CFD73
S21400A3009FE7B0F5A06F9CD1002101A8FFF7A8FD3C
S21400A31097E7FFF759FA019093E7FFF76FFA0446BD
S21400A3204FF42070FFF76AFEB4FBF0F46408019463
S21400A33087E7002101A8FFF717FD82E7002101A8A3
S21400A340FFF7EEFC7DE7002101A8FFF7A3FD78E705
S21400A350002101A8FFF7C0FD73E7002101A8FFF761
S21400A360E5FD6EE708B58020FFF776FE034B9842C2
S21400A37003D8034B4FF480321A6708BD005A6202B6
S21400A38000A0004038B505460C46104B4FF400328E
S21400A3909A660020FFF732FE05FB00F00C4BDA69E8
S21400A3A002F4803241F67131D9639B6823F440137E
S21400A3B00849884201D9002C05DD05498B600AB1A1
S21400A3C00022CA6338BD43F48013F6E700900040CD
S21400A3D000000340005A620208B5FFF721FA002188
S21400A3E0FFF7D0FF08BD000000B583B000238DF84E
S21400A3F00730B0F5807F00F0898011D9B0F5D06FB6
S21400A40000F08A803AD9B0F5006F4DD052D9B0F539
S21400A410086F70D10DF107010020FFF7D7FC6AE046
S21400A42052281ED8242866D324382E2863D8DFE87E
S21400A43000F06767676762625D622F7362626262DE
S21400A4406262626262627962626262477F626262CE
S21400A45062626262626262626262626262626262D7
S21400A4606700802847D1354B1B6F03F00703013B7D
S21400A470032B40D8DFE803F0362A2E32B0F5A06F63
S21400A48050D00BD9B0F5B06F30D0B0F5C06F32D128
S21400A4900DF107010020FFF7BFFC2CE0B0F5806F40
S21400A4A02ED0B0F5906F26D10DF107010020FFF7F2
S21400A4B05BFC20E0B0F5E06F3AD0B0F5F06F1AD153
S21400A4C00DF107010020FFF755FD14E005238DF878
S21400A4D0073010E003238DF807300CE007238DF8D3
S21400A4E0073008E002238DF8073004E00DF107017D
S21400A4F00020FFF715FC9DF8070003B05DF804FB8D
S21400A5000DF107010020FFF7E7FBF4E70DF1070167
S21400A5100020FFF7BFFCEEE70DF107010020FFF774
S21400A520DBFCE8E70DF107010020FFF799FCE2E706
S21400A5300DF107010020FFF7F9FCDCE70080004082
S21400A54008B5FFF751FF082811D013D30938C0B259
S21400A550012812D80C4B4FF400125A6603F5D83374
S21400A5605B6A13F0010F0BD04FF4FA7001E0074B53
S21400A570188808BD4FF6FF70FBE74FF6FF70F8E748
S21400A5804FF6FF70F5E700BF00900040740B002008
S21400A59010B504468020FFF727FF032800F09480BC
S21400A5A04A4B4FF400225A6603F5405345F60E0216
S21400A5B0C3F8802003F580520221916203F5005310
S21400A5C001229A62424B9B6D13F48033FAD12178B4
S21400A5D06278120542EA0162E17842EA0142217994
S21400A5E042EA0132617942EA8112A1790A43384986
S21400A5F00A618A6902F00042E07942EA8062207AC3
S21400A60042EA0062607A42EA0042A07A42EA002207
S21400A610E07A02438A610A6A22F00D02617B01B188
S21400A62008231343227B43EA82030B43284A136220
S21400A630637B002B35D1936A23F03303A17B43EA77
S21400A6404113E17B43EA011343F001039362204B7D
S21400A6509A6D03F5804303339343F8D11C4B03F5FF
S21400A660805102228A621A65194B9B6D13F0804F47
S21400A670FAD1174B1A6922F47002A17842EA015205
S21400A6801A6103F580534FF000429A61237C13B998
S21400A690104B02229A62637C83B90E4B01229A62A7
S21400A6A00CE00B4A936A23F03303A17B43EA411381
S21400A6B0217C43EA4103617C0B439362A37C1BB17C
S21400A6C0034B054AC3F8802010BD00BF0090004031
S21400A6D000C0004000E00040F1A7FFFF014B93F9E7
S21400A6E000007047BC3C002008B51B4B4FF400121E
S21400A6F05A6603F5D83302225A60184B9B6813F447
S21400A700803FFAD1012806D0144B00225A62134B20
S21400A71000225A6008BDFFF787F8114B984212D006
S21400A72003F5122303F5F863984210D000EB80027D
S21400A730520A400A0B4BB3FBF0F0084BDA62186380
S21400A74001225A62E3E745F67A10074AF5E745F62E
S21400A7501A00064AF1E700BF0090004000400240A1
S21400A76000F0490264666666D8B80500BBCF0500EF
S21400A77008B5002903DD0121FFF704FE08BD00210E
S21400A780FFF700FEFAE70000B0F5207F4AD02FD88A
S21400A790B0F5007F3BD04ED810B1B0F5C07F26D1C3
S21400A7A010B54C1EFFF718FE00F048F8FFF780FAC9
S21400A7B0214B196F21F4704141EA04311967FFF704
S21400A7C01DF84FF04023D3F8843013F0100FF8D163
S21400A7D04FF04023D3F88410C1F38111C1F1020178
S21400A7E0FFF7C6FF00F032F8FFF7BCFD10BD70475C
S21400A7F0B0F5607F0AD101390F4AD2F8803023F0D5
S21400A800300343EA0111C2F88010704770470139DF
S21400A810094AD2F8903023F0F85343EA0161C2F8AF
S21400A820901070470139044A136F23F4806343EA9B
S21400A83081211167704770470080004008B50221EB
S21400A8404FF42070FFF7A0FF08BD000008B54FF4D6
S21400A850C070FFF701FC054B984205D902214FF462
S21400A8602070FFF791FF08BD0121F8E780F0FA029B
S21400A87070B50C46B0F5807F00F0298121D9B0F57F
S21400A880D06F00F0A58161D9B0F5006F00F085802B
S21400A89040F28F80B0F5086F40F0FE80072900F088
S21400A8A0B481082900F0B381032900F0AC810021AF
S21400A8B0A04AD2F8003123F003030B43C2F800315C
S21400A8C0EAE0522837D82428C0F0E68024382E281C
S21400A8D000F2E280DFE810F0E500E500E500E500C4
S21400A8E0E000E000D300E00047007C01E000E0006C
S21400A8F0E000E000E000E000E000E000E000E00053
S21400A9009D01E000E000E000E0007400AF01E00020
S21400A910E000E000E000E000E000E000E000E00032
S21400A920E000E000E000E000E000E000E000E00022
S21400A930E000E000E500802840F0AE808B1E052B8E
S21400A94051D8DFE803F0968450995093B0F5A06F85
S21400A95000F05F811AD9B0F5B06F00F09080B0F5C6
S21400A960C06F40F099800A2C00F20881092C80F014
S21400A9700981082C40F0088102226E49D1F8403146
S21400A98023F003031343C1F8403185E0B0F5806F30
S21400A99000F08780B0F5906F7ED1023C052C00F267
S21400A9A00181DFE814F00301010109010B01070131
S21400A9B00501B0F5E06F00F03E81B0F5F06F6BD1A9
S21400A9C00A2C00F2E580092C80F0E680082C40F086
S21400A9D0E58002225749D1F8603123F00303134380
S21400A9E0C1F8603158E000252E460121022000F013
S21400A9F013FAFFF7F1FCFFF721FFFFF759F94D4A6D
S21400AA00136F23F0070333431367FEF7F7FE4FF089
S21400AA104023D3F8843013F0100FF8D14FF04023C2
S21400AA20D3F88410C1F38111C1F10201FFF7A0FE33
S21400AA300121002000F03AFAFFF708FFFFF792FC2A
S21400AA4055BB032C28D13C4B01229A6224E03B4B99
S21400AA504FF400225A6603F540539D6AC5F340053D
S21400AA6003F5805301229A620326BEE700250426DA
S21400AA70BBE700250126B8E700250226B5E7022C2D
S21400AA800BD00F2C0BD101212A4AD2F8803123F0AB
S21400AA9003030B43C2F8803170BD0221F4E70021A6
S21400AAA0F2E7032C0FD0052C0FD0022C09D0002182
S21400AAB0204AD2F8203123F003030B43C2F820319A
S21400AAC0EAE70321F4E70221F2E70121F0E7A1F12A
S21400AAD00804082CE0D801A353F824F001AB0000CA
S21400AAE001AB000099AA000001AB000049AB0000D2
S21400AAF099AA000099AA000099AA000001AB0000DC
S21400AB000C4B596E03F580534FF480325A660C4A4C
S21400AB10136A43F00103136211F4803F03D1094B1B
S21400AB204FF480325A664FF0E022136923F0040394
S21400AB301361B1E70080004000E000400090004054
S21400AB4000C0074000A00040484B596E03F58053F4
S21400AB504FF480325A66464A136A23F001031362A2
S21400AB6011F4803F03D1434B4FF480325A664FF0C6
S21400AB70E022136943F0040313618DE70B2C05D123
S21400AB800322FAE60122F8E60022F6E60022F4E6C0
S21400AB900B2C05D103221DE701221BE7002219E733
S21400ABA0002217E700210AE0022108E0032106E060
S21400ABB0042104E0052102E0062100E001212B4AE1
S21400ABC0D2F8243123F007030B43C2F8243163E79D
S21400ABD0083C062C05D8DFE804F0060C0C08040434
S21400ABE00A00002106E0022104E0032102E004211D
S21400ABF000E001211D4AD2F8003223F007030B4380
S21400AC00C2F8003248E7012152E6032150E602214D
S21400AC104EE60F2C0BD0102C0BD10221134AD2F883
S21400AC20203223F003030B43C2F8203234E701211D
S21400AC30F4E70021F2E70A2C0DD8092C0FD2082CD5
S21400AC400FD102220949D1F8403223F003031343FF
S21400AC50C1F8403220E70B2C05D10322F2E701228F
S21400AC60F0E70022EEE70022ECE700BF008000409D
S21400AC7000C0074000A00040EFF3108072B6704797
S21400AC8000B962B67047EFF31180302383F3118862
S21400AC90704780F3118870474209064B53F82230FC
S21400ACA000F01F0023FA00F080F0010000F0010021
S21400ACB0704700BF00E100E090B9254B00221A6003
S21400ACC0244B4FF400325A6603F598335B68012B29
S21400ACD000D07047204BD3F800211D4B1A607047F8
S21400ACE01B4B1B68002BF4D01C4A5268012AF0D07C
S21400ACF010B5194AC2F800318020FFF775FB052809
S21400AD0003D0174B01225A6010BD4FF4C070FFF7F6
S21400AD1075F90446012815D0104B03F5005207219B
S21400AD20116103F5805301225A600C4B1B6913F026
S21400AD30010FFAD0012CE7D101214FF4C070FFF7C4
S21400AD4023FDE1E702214FF4C070FFF71DFDE3E7A6
S21400AD50C03C0020009000400080004000C0014041
S21400AD6000D00140704770477047000038B5054670
S21400AD70B8B9114A136943F00403136102F076FE72
S21400AD80FFF7F1FFFFF778FF04462CF011FA204694
S21400AD90FFF776FFFFF7E8FF02F07EFE2DB945B11C
S21400ADA038BD0020FFF788FFE3E70120FFF784FFA8
S21400ADB0F5E7FEF723FDF3E700ED00E038B50546BE
S21400ADC098B90F4A136943F00403136102F04EFE6C
S21400ADD0FFF752FF04462CF0EBF92046FFF750FF32
S21400ADE002F05AFE2DB945B138BD0020FFF764FFCA
S21400ADF0E7E70120FFF760FFF5E7FEF7FFFCF3E764
S21400AE0000ED00E008B50020FFF756FF08BD08B5C6
S21400AE100120FFF751FF08BDF8B504464FF0402368
S21400AE20D3F8843013F0100FF8D14FF04023D3F846
S21400AE308430C3F381139C4231D0FEF7C5FC06462E
S21400AE40012C12D0FFF718FF05464FF0402707F5F4
S21400AE5000534FF000725A662046FFF783FF621ECB
S21400AE604FF4806393403B6707E00121FFF780FCC7
S21400AE70E8E74FF04023D3F884304FF040235B6E72
S21400AE8013F0007F06D14FF04023D3F8843013F040
S21400AE90200FEED02846FFF7F3FE022C00D0F8BDB8
S21400AEA000213046FFF764FCF9E7000010B50C46B9
S21400AEB0034650B1094A127812B1094A934208D99A
S21400AEC021460220FFF7A8FF10BDFEF77DFC0346D3
S21400AED0F0E721460120FFF79FFFF5E7C43C00207E
S21400AEE0005A620208B50278034B1A70012100204E
S21400AEF0FFF7DCFF08BD00BFC43C00204FF0402237
S21400AF00536F23F44073417843EA01235367704735
S21400AF104FF04022D36E23F0300301790B43D36603
S21400AF20704700001B4B4FF000425A6603F50B2398
S21400AF3003F58052012151605A6C0A404AF6CD3121
S21400AF40196498B99B6813F0010F07D0124B0121C2
S21400AF509960124BDB6A13F0010FFAD00E4B0121F9
S21400AF60596012B10D4B0E4A1A6470470B4BDB6AE0
S21400AF7013F0080FFAD1094B03F500512020486260
S21400AF8003F5805301219960044B5B6A13F0200F90
S21400AF90FAD0E6E700900040006009400040094013
S21400AFA03254FFFF10B51A4B4FF000425A66194A4A
S21400AFB002F5805301215960546C0C404AF6CD339B
S21400AFC0136443788B400B434FF04021CB63936868
S21400AFD023F07403827843EA0213C278B2B10422E3
S21400AFE013430C4A93600179837943EA0123136182
S21400AFF04179C37943EA012353610078FFF792FF52
S21400B00014B1044B044A1A64012010BD0022E7E77D
S21400B01000900040004009403254FFFF4FF04023AC
S21400B020D3F88830C3F30A0307EE903AF8EE677A4F
S21400B030B5EE000A67EE807A9FED020A37EEC00A88
S21400B040704700BF339388432DE9F84F0C461546EA
S21400B0501E469DF828809DF82C70072A44D84FEA93
S21400B0608209032303FA09FA00FA09F9FFF704FE36
S21400B070384AD2F8001489EA010303EA0A034B406F
S21400B080C2F80034FFF7FCFD4FF0000A072D43D846
S21400B090A9004FF0030909FA01F904F003048C40F3
S21400B0A0FFF7EAFD2B4BD3F80824544004EA0904C2
S21400B0B05440C3F80844FFF7E3FD002E44D0264A68
S21400B0C00123AB401360B8F1000F3FD0234A136052
S21400B0D0012202FA05F5224AC2F82054C7B3A2F6A6
S21400B0E0DC321360BDE8F88FA2F1080A4FEA8A093D
S21400B0F0032303FA09FB00FA09F9FFF7BDFD154A19
S21400B100D2F8041489EA010303EA0B034B40C2F8A1
S21400B1100434FFF7B5FDB9E74FEA8A0A4FF0030992
S21400B12009FA0AF904F0030404FA0AF4FFF7A4FD86
S21400B130084BD3F80C24544004EA09045440C3F8DE
S21400B1400C44FFF79DFDB8E7064AB9E7064ABEE796
S21400B150064AC6E700C0034010D4034014D4034098
S21400B16000E0034010E4034014E4034024E40340FA
S21400B17070B4144662B19BB301258D4000EB4002CB
S21400B180120102F1804202F5703241F2100695512A
S21400B190072932D82C4D00EB400205EB021252680C
S21400B1A08E004FF00F0C0CFA06FC22EA0C0204FA92
S21400B1B006F6324300EB400605EB06156A606CB9EE
S21400B1C0A3B3012303FA01F100EB4000000100F1F4
S21400B1D0804000F5703041F21003C15070BC7047DB
S21400B1E001258D4000EB4002120102F1804202F57B
S21400B1F0703242F210069551CAE7134E00EB400239
S21400B20006EB0212D568A1F1080292004FF00F0C6F
S21400B2100CFA02FC25EA0C0C04FA02F24CEA0202D2
S21400B22000EB400506EB0516F260C8E7012303FABB
S21400B23001F100EB4000000100F1804000F57030A5
S21400B24042F21003C150C9E700C0034000E0436A61
S21400B250436913F4807FFAD100F500502023C363BE
S21400B2607047000002B970472DE9F04105460C46CC
S21400B270174603F00308836823F4407383604FEA9D
S21400B2800826FFF7F9FCAB685E4006F440765E40A1
S21400B290AE60FFF7F5FC2CB9134B9D4219D0134B4B
S21400B2A09D421BD0AB68124B13F8083003FB07F225
S21400B2B06AB1A4EBC7031344013BB3FBF2F3013BB3
S21400B2C0AA6812F0020F01D003B90123AB61BDE8F2
S21400B2D0F0812E20FEF7C0FE0446E3E72F20FEF79F
S21400B2E0BBFE0446DEE700BF0000014A00800640C1
S21400B2F060820300043021B100F580500123036012
S21400B300704700F50050F9E738B504460D460023AF
S21400B310036400F500530C4ADA6300F108034A7828
S21400B32072B903F5805302221A602B7BAA686968FB
S21400B3302046FFF797FF29782046FFF7DBFF38BD4A
S21400B34003F50053EFE700BFFFFF1F00AA4B98422C
S21400B35019D0AA4B984240F06B81A94B30B49C6838
S21400B360C26B12F4C06F10D11978082900F2588108
S21400B370DFE811F0190040006F008E00B000D0002A
S21400B380F90012014A019F4BE8E712F4007F04D04F
S21400B390FD225A7009221A7013E012F4806FF9D059
S21400B3A0FE225A70F6E7618811F0100F18D0228836
S21400B3B0120A02F0060242F0F002012119704263FE
S21400B3C0C1601A78092A40F036810022026493F997
S21400B3D00120012A00F0298193F9010030BC704752
S21400B3E0248804F0FE04224611F0020FE5D044F053
S21400B3F00102E2E712F0800F18D112F0400FE0D001
S21400B40000F500524021D163628812F0100F18D167
S21400B41012F0020F1AD007221A701A7904EBC2042F
S21400B4202289012ACDD10822C260CAE700F500525F
S21400B4308021D163FF225A7008221A700222C2604D
S21400B440BFE702221A7022784263BAE705221A7012
S21400B45086E712F0800F0DD112F0400FB1D000F544
S21400B46000524021D163628812F0020F0DD00322F1
S21400B4701A7075E700F500528021D163FF225A70DA
S21400B48008221A700222C2609BE705221A7067E73C
S21400B490618811F0100F16D02288120A02F00602F8
S21400B4A042F0F00211F0040F07D042F001021979C1
S21400B4B004EBC1042189012909D004211970012156
S21400B4C0C16042637DE7228802F0FE02EAE70821B7
S21400B4D0C160F2E712F0800F0ED112F0400F3FF479
S21400B4E070AF00F500524021D163628812F0040F5D
S21400B4F00DD007221A7064E700F500528021D16350
S21400B500FF225A7008221A700222C26059E70522EA
S21400B5101A7025E759881A7904EBC20CBCF808C0E3
S21400B520614516D3002159800132D2B21A71618862
S21400B53011F0040F0AD111F0010F02D1012A7FF693
S21400B5400FAF08221A700222C2603AE703221A706E
S21400B55006E704EBC20252684C1C5C80525C4263F5
S21400B56006221A702DE712F0800F0AD112F0400F53
S21400B5703FF427AF00F500524021D16305221A7030
S21400B580EEE600F500528021D163FF225A700822B1
S21400B5901A700222C26014E712F0200F3FF411AFB7
S21400B5A01A7904EBC2021289416A5FFA81FC00F53F
S21400B5B000512025CD6359888A4207D91D7904EBAE
S21400B5C0C50464684D1C5D8004F801C059888A4231
S21400B5D004D808221A700222C260F2E60421C16072
S21400B5E0012A7FF6EEAE5988013A91427FF4E9AE21
S21400B5F00822C260E5E600BF0000014A008006405F
S21400B600D43C0020C83C002012F4807F3FF4D9AE22
S21400B61000F500524FF48071D16309221A70D0E60B
S21400B620FB225A7009221A70CBE600225A70D3E623
S21400B6306FF0030070470120D0E600BF10B5044647
S21400B6401D4B98422CD01D4B98422BD11C4B226987
S21400B65012F0010F01D02022E2604A8812F0020F99
S21400B66001D0088908B312F0040F01D00A8AFAB193
S21400B67000221A70012058705A801A719960C023EF
S21400B680E3602046FFF7E2FD04F500530D4ADA6357
S21400B690236C43F4FC6323642046FFF757FE10BD7B
S21400B6A0094BD4E76FF00300F9E76FF00300F6E705
S21400B6B06FF00300F3E700BF0000014A0080064079
S21400B6C0D43C0020FFFF1F00C83C0020436913F055
S21400B6D0807FFBD100F5005001234360704700F5E2
S21400B6E08050012343607047022A09D9033AD2B238
S21400B6F0022A04D821F0FF030360017170477047E7
S21400B70021F07F4311F4000201D04FF07F42134333
S21400B7100360090E0171704770B505460C46466811
S21400B72006F00106FFF7DBFF2378627843EA022380
S21400B730A278120402F480321343E27832B14FF456
S21400B74000321343C5F8983016B170BD0022F8E7F2
S21400B7502846FFF7BBFFF8E770B505460C461646C9
S21400B760FFF7B4FF237803F0070362786AB3082272
S21400B7701343A278120102F030021343E27832B388
S21400B7804FF4807213432B67EB6A23F48B3323F456
S21400B79080732279120202F4E06213436279120384
S21400B7A002F480521343A2799AB14FF480321343C5
S21400B7B0EB6231462846FFF7AFFF2846FFF78FFFBC
S21400B7C0E3790BB10123EB6070BD0022D0E70022C5
S21400B7D0D8E70022EBE7000038B50446FFF77FFF06
S21400B7E02F4BE36062692F4B1340002BFAD1A36105
S21400B7F0C4F89830636913F4401FFBD100E0636F10
S21400B800636913F4807FFAD1A36F002BF7D101E0B0
S21400B810D4F88430636913F4007FF9D1D4F88850E3
S21400B820002DF5D1E36FD4F88C302046FFF74EFF9D
S21400B8300023A3602361E362236230232367C4F8F6
S21400B84080302B460DE004EB031242F26001916457
S21400B8505A1D110104EB021213486050002151607A
S21400B8600133124A944204D02A469342EBD32B4625
S21400B8700AE00222F9E7102293420AD203F12802D4
S21400B880002144F822100133084A9442F3D02A4695
S21400B890F2E704F50054064B6362A36238BD00BFAE
S21400B8A0120002005200010000C002800040004A60
S21400B8B08F330F8008B50B4669B103F5742303F286
